{
  "contractName": "SmartContract",
  "abi": [
    {
      "inputs": [
        {
          "internalType": "string",
          "name": "_name",
          "type": "string"
        },
        {
          "internalType": "string",
          "name": "_symbol",
          "type": "string"
        },
        {
          "internalType": "string",
          "name": "_initBaseURI",
          "type": "string"
        }
      ],
      "stateMutability": "nonpayable",
      "type": "constructor"
    },
    {
      "anonymous": false,
      "inputs": [
        {
          "indexed": true,
          "internalType": "address",
          "name": "owner",
          "type": "address"
        },
        {
          "indexed": true,
          "internalType": "address",
          "name": "approved",
          "type": "address"
        },
        {
          "indexed": true,
          "internalType": "uint256",
          "name": "tokenId",
          "type": "uint256"
        }
      ],
      "name": "Approval",
      "type": "event"
    },
    {
      "anonymous": false,
      "inputs": [
        {
          "indexed": true,
          "internalType": "address",
          "name": "owner",
          "type": "address"
        },
        {
          "indexed": true,
          "internalType": "address",
          "name": "operator",
          "type": "address"
        },
        {
          "indexed": false,
          "internalType": "bool",
          "name": "approved",
          "type": "bool"
        }
      ],
      "name": "ApprovalForAll",
      "type": "event"
    },
    {
      "anonymous": false,
      "inputs": [
        {
          "indexed": true,
          "internalType": "address",
          "name": "previousOwner",
          "type": "address"
        },
        {
          "indexed": true,
          "internalType": "address",
          "name": "newOwner",
          "type": "address"
        }
      ],
      "name": "OwnershipTransferred",
      "type": "event"
    },
    {
      "anonymous": false,
      "inputs": [
        {
          "indexed": true,
          "internalType": "address",
          "name": "from",
          "type": "address"
        },
        {
          "indexed": true,
          "internalType": "address",
          "name": "to",
          "type": "address"
        },
        {
          "indexed": true,
          "internalType": "uint256",
          "name": "tokenId",
          "type": "uint256"
        }
      ],
      "name": "Transfer",
      "type": "event"
    },
    {
      "inputs": [
        {
          "internalType": "address",
          "name": "to",
          "type": "address"
        },
        {
          "internalType": "uint256",
          "name": "tokenId",
          "type": "uint256"
        }
      ],
      "name": "approve",
      "outputs": [],
      "stateMutability": "nonpayable",
      "type": "function"
    },
    {
      "inputs": [
        {
          "internalType": "address",
          "name": "owner",
          "type": "address"
        }
      ],
      "name": "balanceOf",
      "outputs": [
        {
          "internalType": "uint256",
          "name": "",
          "type": "uint256"
        }
      ],
      "stateMutability": "view",
      "type": "function"
    },
    {
      "inputs": [],
      "name": "baseExtension",
      "outputs": [
        {
          "internalType": "string",
          "name": "",
          "type": "string"
        }
      ],
      "stateMutability": "view",
      "type": "function"
    },
    {
      "inputs": [],
      "name": "baseURI",
      "outputs": [
        {
          "internalType": "string",
          "name": "",
          "type": "string"
        }
      ],
      "stateMutability": "view",
      "type": "function"
    },
    {
      "inputs": [],
      "name": "cost",
      "outputs": [
        {
          "internalType": "uint256",
          "name": "",
          "type": "uint256"
        }
      ],
      "stateMutability": "view",
      "type": "function"
    },
    {
      "inputs": [
        {
          "internalType": "uint256",
          "name": "tokenId",
          "type": "uint256"
        }
      ],
      "name": "getApproved",
      "outputs": [
        {
          "internalType": "address",
          "name": "",
          "type": "address"
        }
      ],
      "stateMutability": "view",
      "type": "function"
    },
    {
      "inputs": [
        {
          "internalType": "address",
          "name": "owner",
          "type": "address"
        },
        {
          "internalType": "address",
          "name": "operator",
          "type": "address"
        }
      ],
      "name": "isApprovedForAll",
      "outputs": [
        {
          "internalType": "bool",
          "name": "",
          "type": "bool"
        }
      ],
      "stateMutability": "view",
      "type": "function"
    },
    {
      "inputs": [],
      "name": "maxMintAmount",
      "outputs": [
        {
          "internalType": "uint256",
          "name": "",
          "type": "uint256"
        }
      ],
      "stateMutability": "view",
      "type": "function"
    },
    {
      "inputs": [],
      "name": "maxSupply",
      "outputs": [
        {
          "internalType": "uint256",
          "name": "",
          "type": "uint256"
        }
      ],
      "stateMutability": "view",
      "type": "function"
    },
    {
      "inputs": [],
      "name": "name",
      "outputs": [
        {
          "internalType": "string",
          "name": "",
          "type": "string"
        }
      ],
      "stateMutability": "view",
      "type": "function"
    },
    {
      "inputs": [],
      "name": "owner",
      "outputs": [
        {
          "internalType": "address",
          "name": "",
          "type": "address"
        }
      ],
      "stateMutability": "view",
      "type": "function"
    },
    {
      "inputs": [
        {
          "internalType": "uint256",
          "name": "tokenId",
          "type": "uint256"
        }
      ],
      "name": "ownerOf",
      "outputs": [
        {
          "internalType": "address",
          "name": "",
          "type": "address"
        }
      ],
      "stateMutability": "view",
      "type": "function"
    },
    {
      "inputs": [],
      "name": "paused",
      "outputs": [
        {
          "internalType": "bool",
          "name": "",
          "type": "bool"
        }
      ],
      "stateMutability": "view",
      "type": "function"
    },
    {
      "inputs": [],
      "name": "renounceOwnership",
      "outputs": [],
      "stateMutability": "nonpayable",
      "type": "function"
    },
    {
      "inputs": [
        {
          "internalType": "address",
          "name": "from",
          "type": "address"
        },
        {
          "internalType": "address",
          "name": "to",
          "type": "address"
        },
        {
          "internalType": "uint256",
          "name": "tokenId",
          "type": "uint256"
        }
      ],
      "name": "safeTransferFrom",
      "outputs": [],
      "stateMutability": "nonpayable",
      "type": "function"
    },
    {
      "inputs": [
        {
          "internalType": "address",
          "name": "from",
          "type": "address"
        },
        {
          "internalType": "address",
          "name": "to",
          "type": "address"
        },
        {
          "internalType": "uint256",
          "name": "tokenId",
          "type": "uint256"
        },
        {
          "internalType": "bytes",
          "name": "_data",
          "type": "bytes"
        }
      ],
      "name": "safeTransferFrom",
      "outputs": [],
      "stateMutability": "nonpayable",
      "type": "function"
    },
    {
      "inputs": [
        {
          "internalType": "address",
          "name": "operator",
          "type": "address"
        },
        {
          "internalType": "bool",
          "name": "approved",
          "type": "bool"
        }
      ],
      "name": "setApprovalForAll",
      "outputs": [],
      "stateMutability": "nonpayable",
      "type": "function"
    },
    {
      "inputs": [
        {
          "internalType": "bytes4",
          "name": "interfaceId",
          "type": "bytes4"
        }
      ],
      "name": "supportsInterface",
      "outputs": [
        {
          "internalType": "bool",
          "name": "",
          "type": "bool"
        }
      ],
      "stateMutability": "view",
      "type": "function"
    },
    {
      "inputs": [],
      "name": "symbol",
      "outputs": [
        {
          "internalType": "string",
          "name": "",
          "type": "string"
        }
      ],
      "stateMutability": "view",
      "type": "function"
    },
    {
      "inputs": [
        {
          "internalType": "uint256",
          "name": "index",
          "type": "uint256"
        }
      ],
      "name": "tokenByIndex",
      "outputs": [
        {
          "internalType": "uint256",
          "name": "",
          "type": "uint256"
        }
      ],
      "stateMutability": "view",
      "type": "function"
    },
    {
      "inputs": [
        {
          "internalType": "address",
          "name": "owner",
          "type": "address"
        },
        {
          "internalType": "uint256",
          "name": "index",
          "type": "uint256"
        }
      ],
      "name": "tokenOfOwnerByIndex",
      "outputs": [
        {
          "internalType": "uint256",
          "name": "",
          "type": "uint256"
        }
      ],
      "stateMutability": "view",
      "type": "function"
    },
    {
      "inputs": [],
      "name": "totalSupply",
      "outputs": [
        {
          "internalType": "uint256",
          "name": "",
          "type": "uint256"
        }
      ],
      "stateMutability": "view",
      "type": "function"
    },
    {
      "inputs": [
        {
          "internalType": "address",
          "name": "from",
          "type": "address"
        },
        {
          "internalType": "address",
          "name": "to",
          "type": "address"
        },
        {
          "internalType": "uint256",
          "name": "tokenId",
          "type": "uint256"
        }
      ],
      "name": "transferFrom",
      "outputs": [],
      "stateMutability": "nonpayable",
      "type": "function"
    },
    {
      "inputs": [
        {
          "internalType": "address",
          "name": "newOwner",
          "type": "address"
        }
      ],
      "name": "transferOwnership",
      "outputs": [],
      "stateMutability": "nonpayable",
      "type": "function"
    },
    {
      "inputs": [
        {
          "internalType": "address",
          "name": "",
          "type": "address"
        }
      ],
      "name": "whitelisted",
      "outputs": [
        {
          "internalType": "bool",
          "name": "",
          "type": "bool"
        }
      ],
      "stateMutability": "view",
      "type": "function"
    },
    {
      "inputs": [
        {
          "internalType": "address",
          "name": "_to",
          "type": "address"
        },
        {
          "internalType": "uint256",
          "name": "_mintAmount",
          "type": "uint256"
        }
      ],
      "name": "mint",
      "outputs": [],
      "stateMutability": "payable",
      "type": "function"
    },
    {
      "inputs": [
        {
          "internalType": "address",
          "name": "_owner",
          "type": "address"
        }
      ],
      "name": "walletOfOwner",
      "outputs": [
        {
          "internalType": "uint256[]",
          "name": "",
          "type": "uint256[]"
        }
      ],
      "stateMutability": "view",
      "type": "function"
    },
    {
      "inputs": [
        {
          "internalType": "uint256",
          "name": "tokenId",
          "type": "uint256"
        }
      ],
      "name": "tokenURI",
      "outputs": [
        {
          "internalType": "string",
          "name": "",
          "type": "string"
        }
      ],
      "stateMutability": "view",
      "type": "function"
    },
    {
      "inputs": [
        {
          "internalType": "uint256",
          "name": "_newCost",
          "type": "uint256"
        }
      ],
      "name": "setCost",
      "outputs": [],
      "stateMutability": "nonpayable",
      "type": "function"
    },
    {
      "inputs": [
        {
          "internalType": "uint256",
          "name": "_newmaxMintAmount",
          "type": "uint256"
        }
      ],
      "name": "setmaxMintAmount",
      "outputs": [],
      "stateMutability": "nonpayable",
      "type": "function"
    },
    {
      "inputs": [
        {
          "internalType": "string",
          "name": "_newBaseURI",
          "type": "string"
        }
      ],
      "name": "setBaseURI",
      "outputs": [],
      "stateMutability": "nonpayable",
      "type": "function"
    },
    {
      "inputs": [
        {
          "internalType": "string",
          "name": "_newBaseExtension",
          "type": "string"
        }
      ],
      "name": "setBaseExtension",
      "outputs": [],
      "stateMutability": "nonpayable",
      "type": "function"
    },
    {
      "inputs": [
        {
          "internalType": "bool",
          "name": "_state",
          "type": "bool"
        }
      ],
      "name": "pause",
      "outputs": [],
      "stateMutability": "nonpayable",
      "type": "function"
    },
    {
      "inputs": [
        {
          "internalType": "address",
          "name": "_user",
          "type": "address"
        }
      ],
      "name": "whitelistUser",
      "outputs": [],
      "stateMutability": "nonpayable",
      "type": "function"
    },
    {
      "inputs": [
        {
          "internalType": "address",
          "name": "_user",
          "type": "address"
        }
      ],
      "name": "removeWhitelistUser",
      "outputs": [],
      "stateMutability": "nonpayable",
      "type": "function"
    },
    {
      "inputs": [],
      "name": "withdraw",
      "outputs": [],
      "stateMutability": "payable",
      "type": "function"
    }
  ],
  "bytecode": "0x60c06040526005608081905264173539b7b760d91b60a09081526200002891600c919062000a28565b50660aa87bee538000600d556108ae600e55609d600f556010805460ff191690553480156200005657600080fd5b506040516200327c3803806200327c833981016040819052620000799162000b8e565b8251839083906200009290600090602085019062000a28565b508051620000a890600190602084019062000a28565b505050620000c5620000bf620000e660201b60201c565b620000ea565b620000d0816200013c565b620000dd336032620001b5565b50505062000d7e565b3390565b600a80546001600160a01b038381166001600160a01b0319831681179093556040519116919082907f8be0079c531659141344cd1fd0a4f28419497f9722a3daafe3b4186f6b6457e090600090a35050565b600a546001600160a01b031633146200019c5760405162461bcd60e51b815260206004820181905260248201527f4f776e61626c653a2063616c6c6572206973206e6f7420746865206f776e657260448201526064015b60405180910390fd5b8051620001b190600b90602084019062000a28565b5050565b6000620001c160085490565b60105490915060ff1615620002055760405162461bcd60e51b815260206004820152600960248201526867617373636173653160b81b604482015260640162000193565b60008211620002435760405162461bcd60e51b815260206004820152600960248201526833b0b9b9b1b0b9b29960b91b604482015260640162000193565b600f54821115620002835760405162461bcd60e51b815260206004820152600960248201526867617373636173653360b81b604482015260640162000193565b600e5462000292838362000c71565b1115620002ce5760405162461bcd60e51b815260206004820152600960248201526819d85cdcd8d85cd94d60ba1b604482015260640162000193565b600a546001600160a01b031633146200034b573360009081526011602052604090205460ff1615156001146200034b5781600d546200030e919062000c8c565b3410156200034b5760405162461bcd60e51b815260206004820152600960248201526867617373636173653560b81b604482015260640162000193565b60015b82811162000382576200036d8462000367838562000c71565b62000388565b80620003798162000d34565b9150506200034e565b50505050565b620001b1828260405180602001604052806000815250620003aa60201b60201c565b620003b6838362000422565b620003c5600084848462000578565b6200041d5760405162461bcd60e51b815260206004820152603260248201526000805160206200325c83398151915260448201527131b2b4bb32b91034b6b83632b6b2b73a32b960711b606482015260840162000193565b505050565b6001600160a01b0382166200047a5760405162461bcd60e51b815260206004820181905260248201527f4552433732313a206d696e7420746f20746865207a65726f2061646472657373604482015260640162000193565b6000818152600260205260409020546001600160a01b031615620004e15760405162461bcd60e51b815260206004820152601c60248201527f4552433732313a20746f6b656e20616c7265616479206d696e74656400000000604482015260640162000193565b620004ef60008383620006e1565b6001600160a01b03821660009081526003602052604081208054600192906200051a90849062000c71565b909155505060008181526002602052604080822080546001600160a01b0319166001600160a01b03861690811790915590518392907fddf252ad1be2c89b69c2b068fc378daa952ba7f163c4a11628f55a4df523b3ef908290a45050565b600062000599846001600160a01b0316620007bd60201b620012b41760201c565b15620006d557604051630a85bd0160e11b81526001600160a01b0385169063150b7a0290620005d390339089908890889060040162000c1b565b602060405180830381600087803b158015620005ee57600080fd5b505af192505050801562000621575060408051601f3d908101601f191682019092526200061e9181019062000b5d565b60015b620006ba573d80801562000652576040519150601f19603f3d011682016040523d82523d6000602084013e62000657565b606091505b508051620006b25760405162461bcd60e51b815260206004820152603260248201526000805160206200325c83398151915260448201527131b2b4bb32b91034b6b83632b6b2b73a32b960711b606482015260840162000193565b805181602001fd5b6001600160e01b031916630a85bd0160e11b149050620006d9565b5060015b949350505050565b620006f98383836200041d60201b620009401760201c565b6001600160a01b03831662000757576200075181600880546000838152600960205260408120829055600182018355919091527ff3f7a9fe364faab93b216da50a3214154f22a0a2b415b23a84c8169e8b636ee30155565b6200077d565b816001600160a01b0316836001600160a01b0316146200077d576200077d8382620007c3565b6001600160a01b03821662000797576200041d8162000870565b826001600160a01b0316826001600160a01b0316146200041d576200041d82826200094e565b3b151590565b60006001620007dd846200099f60201b62000fbb1760201c565b620007e9919062000cae565b6000838152600760205260409020549091508082146200083d576001600160a01b03841660009081526006602090815260408083208584528252808320548484528184208190558352600790915290208190555b5060009182526007602090815260408084208490556001600160a01b039094168352600681528383209183525290812055565b600854600090620008849060019062000cae565b60008381526009602052604081205460088054939450909284908110620008bb57634e487b7160e01b600052603260045260246000fd5b906000526020600020015490508060088381548110620008eb57634e487b7160e01b600052603260045260246000fd5b60009182526020808320909101929092558281526009909152604080822084905585825281205560088054806200093257634e487b7160e01b600052603160045260246000fd5b6001900381819060005260206000200160009055905550505050565b600062000966836200099f60201b62000fbb1760201c565b6001600160a01b039093166000908152600660209081526040808320868452825280832085905593825260079052919091209190915550565b60006001600160a01b03821662000a0c5760405162461bcd60e51b815260206004820152602a60248201527f4552433732313a2062616c616e636520717565727920666f7220746865207a65604482015269726f206164647265737360b01b606482015260840162000193565b506001600160a01b031660009081526003602052604090205490565b82805462000a369062000cf7565b90600052602060002090601f01602090048101928262000a5a576000855562000aa5565b82601f1062000a7557805160ff191683800117855562000aa5565b8280016001018555821562000aa5579182015b8281111562000aa557825182559160200191906001019062000a88565b5062000ab392915062000ab7565b5090565b5b8082111562000ab3576000815560010162000ab8565b600082601f83011262000adf578081fd5b81516001600160401b038082111562000afc5762000afc62000d68565b604051601f8301601f19908116603f0116810190828211818310171562000b275762000b2762000d68565b8160405283815286602085880101111562000b40578485fd5b62000b5384602083016020890162000cc8565b9695505050505050565b60006020828403121562000b6f578081fd5b81516001600160e01b03198116811462000b87578182fd5b9392505050565b60008060006060848603121562000ba3578182fd5b83516001600160401b038082111562000bba578384fd5b62000bc88783880162000ace565b9450602086015191508082111562000bde578384fd5b62000bec8783880162000ace565b9350604086015191508082111562000c02578283fd5b5062000c118682870162000ace565b9150509250925092565b600060018060a01b03808716835280861660208401525083604083015260806060830152825180608084015262000c5a8160a085016020870162000cc8565b601f01601f19169190910160a00195945050505050565b6000821982111562000c875762000c8762000d52565b500190565b600081600019048311821515161562000ca95762000ca962000d52565b500290565b60008282101562000cc35762000cc362000d52565b500390565b60005b8381101562000ce557818101518382015260200162000ccb565b83811115620003825750506000910152565b600181811c9082168062000d0c57607f821691505b6020821081141562000d2e57634e487b7160e01b600052602260045260246000fd5b50919050565b600060001982141562000d4b5762000d4b62000d52565b5060010190565b634e487b7160e01b600052601160045260246000fd5b634e487b7160e01b600052604160045260246000fd5b6124ce8062000d8e6000396000f3fe60806040526004361061020f5760003560e01c806355f804b311610118578063a22cb465116100a0578063d5abeb011161006f578063d5abeb01146105c8578063d936547e146105de578063da3ef23f1461060e578063e985e9c51461062e578063f2fde38b1461067757600080fd5b8063a22cb46514610553578063b88d4fde14610573578063c668286214610593578063c87b56dd146105a857600080fd5b806370a08231116100e757806370a08231146104cb578063715018a6146104eb5780637f00c7a6146105005780638da5cb5b1461052057806395d89b411461053e57600080fd5b806355f804b31461045c5780635c975abb1461047c5780636352211e146104965780636c0360eb146104b657600080fd5b80632f745c591161019b57806342842e0e1161016a57806342842e0e146103af578063438b6300146103cf57806344a0d68a146103fc5780634a4c560d1461041c5780634f6ccce71461043c57600080fd5b80632f745c591461035457806330cc7ae0146103745780633ccfd60b1461039457806340c10f191461039c57600080fd5b8063095ea7b3116101e2578063095ea7b3146102c557806313faede6146102e557806318160ddd14610309578063239c70ae1461031e57806323b872dd1461033457600080fd5b806301ffc9a71461021457806302329a291461024957806306fdde031461026b578063081812fc1461028d575b600080fd5b34801561022057600080fd5b5061023461022f366004612058565b610697565b60405190151581526020015b60405180910390f35b34801561025557600080fd5b5061026961026436600461203e565b6106c2565b005b34801561027757600080fd5b50610280610708565b604051610240919061225d565b34801561029957600080fd5b506102ad6102a83660046120d6565b61079a565b6040516001600160a01b039091168152602001610240565b3480156102d157600080fd5b506102696102e0366004612015565b61082f565b3480156102f157600080fd5b506102fb600d5481565b604051908152602001610240565b34801561031557600080fd5b506008546102fb565b34801561032a57600080fd5b506102fb600f5481565b34801561034057600080fd5b5061026961034f366004611f38565b610945565b34801561036057600080fd5b506102fb61036f366004612015565b610976565b34801561038057600080fd5b5061026961038f366004611eec565b610a0c565b610269610a57565b6102696103aa366004612015565b610ac4565b3480156103bb57600080fd5b506102696103ca366004611f38565b610c7e565b3480156103db57600080fd5b506103ef6103ea366004611eec565b610c99565b6040516102409190612219565b34801561040857600080fd5b506102696104173660046120d6565b610d57565b34801561042857600080fd5b50610269610437366004611eec565b610d86565b34801561044857600080fd5b506102fb6104573660046120d6565b610dd4565b34801561046857600080fd5b50610269610477366004612090565b610e75565b34801561048857600080fd5b506010546102349060ff1681565b3480156104a257600080fd5b506102ad6104b13660046120d6565b610eb6565b3480156104c257600080fd5b50610280610f2d565b3480156104d757600080fd5b506102fb6104e6366004611eec565b610fbb565b3480156104f757600080fd5b50610269611042565b34801561050c57600080fd5b5061026961051b3660046120d6565b611076565b34801561052c57600080fd5b50600a546001600160a01b03166102ad565b34801561054a57600080fd5b506102806110a5565b34801561055f57600080fd5b5061026961056e366004611fec565b6110b4565b34801561057f57600080fd5b5061026961058e366004611f73565b6110bf565b34801561059f57600080fd5b506102806110f1565b3480156105b457600080fd5b506102806105c33660046120d6565b6110fe565b3480156105d457600080fd5b506102fb600e5481565b3480156105ea57600080fd5b506102346105f9366004611eec565b60116020526000908152604090205460ff1681565b34801561061a57600080fd5b50610269610629366004612090565b6111dc565b34801561063a57600080fd5b50610234610649366004611f06565b6001600160a01b03918216600090815260056020908152604080832093909416825291909152205460ff1690565b34801561068357600080fd5b50610269610692366004611eec565b611219565b60006001600160e01b0319821663780e9d6360e01b14806106bc57506106bc826112ba565b92915050565b600a546001600160a01b031633146106f55760405162461bcd60e51b81526004016106ec906122c2565b60405180910390fd5b6010805460ff1916911515919091179055565b606060008054610717906123d6565b80601f0160208091040260200160405190810160405280929190818152602001828054610743906123d6565b80156107905780601f1061076557610100808354040283529160200191610790565b820191906000526020600020905b81548152906001019060200180831161077357829003601f168201915b5050505050905090565b6000818152600260205260408120546001600160a01b03166108135760405162461bcd60e51b815260206004820152602c60248201527f4552433732313a20617070726f76656420717565727920666f72206e6f6e657860448201526b34b9ba32b73a103a37b5b2b760a11b60648201526084016106ec565b506000908152600460205260409020546001600160a01b031690565b600061083a82610eb6565b9050806001600160a01b0316836001600160a01b031614156108a85760405162461bcd60e51b815260206004820152602160248201527f4552433732313a20617070726f76616c20746f2063757272656e74206f776e656044820152603960f91b60648201526084016106ec565b336001600160a01b03821614806108c457506108c48133610649565b6109365760405162461bcd60e51b815260206004820152603860248201527f4552433732313a20617070726f76652063616c6c6572206973206e6f74206f7760448201527f6e6572206e6f7220617070726f76656420666f7220616c6c000000000000000060648201526084016106ec565b610940838361130a565b505050565b61094f3382611378565b61096b5760405162461bcd60e51b81526004016106ec906122f7565b61094083838361146f565b600061098183610fbb565b82106109e35760405162461bcd60e51b815260206004820152602b60248201527f455243373231456e756d657261626c653a206f776e657220696e646578206f7560448201526a74206f6620626f756e647360a81b60648201526084016106ec565b506001600160a01b03919091166000908152600660209081526040808320938352929052205490565b600a546001600160a01b03163314610a365760405162461bcd60e51b81526004016106ec906122c2565b6001600160a01b03166000908152601160205260409020805460ff19169055565b600a546001600160a01b03163314610a815760405162461bcd60e51b81526004016106ec906122c2565b60405133904780156108fc02916000818181858888f19350505050610ac25760405162461bcd60e51b815260206004820152600060248201526044016106ec565b565b6000610acf60085490565b60105490915060ff1615610b115760405162461bcd60e51b815260206004820152600960248201526867617373636173653160b81b60448201526064016106ec565b60008211610b4d5760405162461bcd60e51b815260206004820152600960248201526833b0b9b9b1b0b9b29960b91b60448201526064016106ec565b600f54821115610b8b5760405162461bcd60e51b815260206004820152600960248201526867617373636173653360b81b60448201526064016106ec565b600e54610b988383612348565b1115610bd25760405162461bcd60e51b815260206004820152600960248201526819d85cdcd8d85cd94d60ba1b60448201526064016106ec565b600a546001600160a01b03163314610c49573360009081526011602052604090205460ff161515600114610c495781600d54610c0e9190612374565b341015610c495760405162461bcd60e51b815260206004820152600960248201526867617373636173653560b81b60448201526064016106ec565b60015b828111610c7857610c6684610c618385612348565b61161a565b80610c7081612411565b915050610c4c565b50505050565b610940838383604051806020016040528060008152506110bf565b60606000610ca683610fbb565b905060008167ffffffffffffffff811115610cd157634e487b7160e01b600052604160045260246000fd5b604051908082528060200260200182016040528015610cfa578160200160208202803683370190505b50905060005b82811015610d4f57610d128582610976565b828281518110610d3257634e487b7160e01b600052603260045260246000fd5b602090810291909101015280610d4781612411565b915050610d00565b509392505050565b600a546001600160a01b03163314610d815760405162461bcd60e51b81526004016106ec906122c2565b600d55565b600a546001600160a01b03163314610db05760405162461bcd60e51b81526004016106ec906122c2565b6001600160a01b03166000908152601160205260409020805460ff19166001179055565b6000610ddf60085490565b8210610e425760405162461bcd60e51b815260206004820152602c60248201527f455243373231456e756d657261626c653a20676c6f62616c20696e646578206f60448201526b7574206f6620626f756e647360a01b60648201526084016106ec565b60088281548110610e6357634e487b7160e01b600052603260045260246000fd5b90600052602060002001549050919050565b600a546001600160a01b03163314610e9f5760405162461bcd60e51b81526004016106ec906122c2565b8051610eb290600b906020840190611db1565b5050565b6000818152600260205260408120546001600160a01b0316806106bc5760405162461bcd60e51b815260206004820152602960248201527f4552433732313a206f776e657220717565727920666f72206e6f6e657869737460448201526832b73a103a37b5b2b760b91b60648201526084016106ec565b600b8054610f3a906123d6565b80601f0160208091040260200160405190810160405280929190818152602001828054610f66906123d6565b8015610fb35780601f10610f8857610100808354040283529160200191610fb3565b820191906000526020600020905b815481529060010190602001808311610f9657829003601f168201915b505050505081565b60006001600160a01b0382166110265760405162461bcd60e51b815260206004820152602a60248201527f4552433732313a2062616c616e636520717565727920666f7220746865207a65604482015269726f206164647265737360b01b60648201526084016106ec565b506001600160a01b031660009081526003602052604090205490565b600a546001600160a01b0316331461106c5760405162461bcd60e51b81526004016106ec906122c2565b610ac26000611634565b600a546001600160a01b031633146110a05760405162461bcd60e51b81526004016106ec906122c2565b600f55565b606060018054610717906123d6565b610eb2338383611686565b6110c93383611378565b6110e55760405162461bcd60e51b81526004016106ec906122f7565b610c7884848484611755565b600c8054610f3a906123d6565b6000818152600260205260409020546060906001600160a01b031661117d5760405162461bcd60e51b815260206004820152602f60248201527f4552433732314d657461646174613a2055524920717565727920666f72206e6f60448201526e3732bc34b9ba32b73a103a37b5b2b760891b60648201526084016106ec565b6000611187611788565b905060008151116111a757604051806020016040528060008152506111d5565b806111b184611797565b600c6040516020016111c59392919061211a565b6040516020818303038152906040525b9392505050565b600a546001600160a01b031633146112065760405162461bcd60e51b81526004016106ec906122c2565b8051610eb290600c906020840190611db1565b600a546001600160a01b031633146112435760405162461bcd60e51b81526004016106ec906122c2565b6001600160a01b0381166112a85760405162461bcd60e51b815260206004820152602660248201527f4f776e61626c653a206e6577206f776e657220697320746865207a65726f206160448201526564647265737360d01b60648201526084016106ec565b6112b181611634565b50565b3b151590565b60006001600160e01b031982166380ac58cd60e01b14806112eb57506001600160e01b03198216635b5e139f60e01b145b806106bc57506301ffc9a760e01b6001600160e01b03198316146106bc565b600081815260046020526040902080546001600160a01b0319166001600160a01b038416908117909155819061133f82610eb6565b6001600160a01b03167f8c5be1e5ebec7d5bd14f71427d1e84f3dd0314c0f7b2291e5b200ac8c7c3b92560405160405180910390a45050565b6000818152600260205260408120546001600160a01b03166113f15760405162461bcd60e51b815260206004820152602c60248201527f4552433732313a206f70657261746f7220717565727920666f72206e6f6e657860448201526b34b9ba32b73a103a37b5b2b760a11b60648201526084016106ec565b60006113fc83610eb6565b9050806001600160a01b0316846001600160a01b031614806114375750836001600160a01b031661142c8461079a565b6001600160a01b0316145b8061146757506001600160a01b0380821660009081526005602090815260408083209388168352929052205460ff165b949350505050565b826001600160a01b031661148282610eb6565b6001600160a01b0316146114ea5760405162461bcd60e51b815260206004820152602960248201527f4552433732313a207472616e73666572206f6620746f6b656e2074686174206960448201526839903737ba1037bbb760b91b60648201526084016106ec565b6001600160a01b03821661154c5760405162461bcd60e51b8152602060048201526024808201527f4552433732313a207472616e7366657220746f20746865207a65726f206164646044820152637265737360e01b60648201526084016106ec565b6115578383836118b1565b61156260008261130a565b6001600160a01b038316600090815260036020526040812080546001929061158b908490612393565b90915550506001600160a01b03821660009081526003602052604081208054600192906115b9908490612348565b909155505060008181526002602052604080822080546001600160a01b0319166001600160a01b0386811691821790925591518493918716917fddf252ad1be2c89b69c2b068fc378daa952ba7f163c4a11628f55a4df523b3ef91a4505050565b610eb2828260405180602001604052806000815250611969565b600a80546001600160a01b038381166001600160a01b0319831681179093556040519116919082907f8be0079c531659141344cd1fd0a4f28419497f9722a3daafe3b4186f6b6457e090600090a35050565b816001600160a01b0316836001600160a01b031614156116e85760405162461bcd60e51b815260206004820152601960248201527f4552433732313a20617070726f766520746f2063616c6c65720000000000000060448201526064016106ec565b6001600160a01b03838116600081815260056020908152604080832094871680845294825291829020805460ff191686151590811790915591519182527f17307eab39ab6107e8899845ad3d59bd9653f200f220920489ca2b5937696c31910160405180910390a3505050565b61176084848461146f565b61176c8484848461199c565b610c785760405162461bcd60e51b81526004016106ec90612270565b6060600b8054610717906123d6565b6060816117bb5750506040805180820190915260018152600360fc1b602082015290565b8160005b81156117e557806117cf81612411565b91506117de9050600a83612360565b91506117bf565b60008167ffffffffffffffff81111561180e57634e487b7160e01b600052604160045260246000fd5b6040519080825280601f01601f191660200182016040528015611838576020820181803683370190505b5090505b84156114675761184d600183612393565b915061185a600a8661242c565b611865906030612348565b60f81b81838151811061188857634e487b7160e01b600052603260045260246000fd5b60200101906001600160f81b031916908160001a9053506118aa600a86612360565b945061183c565b6001600160a01b03831661190c5761190781600880546000838152600960205260408120829055600182018355919091527ff3f7a9fe364faab93b216da50a3214154f22a0a2b415b23a84c8169e8b636ee30155565b61192f565b816001600160a01b0316836001600160a01b03161461192f5761192f8382611aa9565b6001600160a01b0382166119465761094081611b46565b826001600160a01b0316826001600160a01b031614610940576109408282611c1f565b6119738383611c63565b611980600084848461199c565b6109405760405162461bcd60e51b81526004016106ec90612270565b60006001600160a01b0384163b15611a9e57604051630a85bd0160e11b81526001600160a01b0385169063150b7a02906119e09033908990889088906004016121dc565b602060405180830381600087803b1580156119fa57600080fd5b505af1925050508015611a2a575060408051601f3d908101601f19168201909252611a2791810190612074565b60015b611a84573d808015611a58576040519150601f19603f3d011682016040523d82523d6000602084013e611a5d565b606091505b508051611a7c5760405162461bcd60e51b81526004016106ec90612270565b805181602001fd5b6001600160e01b031916630a85bd0160e11b149050611467565b506001949350505050565b60006001611ab684610fbb565b611ac09190612393565b600083815260076020526040902054909150808214611b13576001600160a01b03841660009081526006602090815260408083208584528252808320548484528184208190558352600790915290208190555b5060009182526007602090815260408084208490556001600160a01b039094168352600681528383209183525290812055565b600854600090611b5890600190612393565b60008381526009602052604081205460088054939450909284908110611b8e57634e487b7160e01b600052603260045260246000fd5b906000526020600020015490508060088381548110611bbd57634e487b7160e01b600052603260045260246000fd5b6000918252602080832090910192909255828152600990915260408082208490558582528120556008805480611c0357634e487b7160e01b600052603160045260246000fd5b6001900381819060005260206000200160009055905550505050565b6000611c2a83610fbb565b6001600160a01b039093166000908152600660209081526040808320868452825280832085905593825260079052919091209190915550565b6001600160a01b038216611cb95760405162461bcd60e51b815260206004820181905260248201527f4552433732313a206d696e7420746f20746865207a65726f206164647265737360448201526064016106ec565b6000818152600260205260409020546001600160a01b031615611d1e5760405162461bcd60e51b815260206004820152601c60248201527f4552433732313a20746f6b656e20616c7265616479206d696e7465640000000060448201526064016106ec565b611d2a600083836118b1565b6001600160a01b0382166000908152600360205260408120805460019290611d53908490612348565b909155505060008181526002602052604080822080546001600160a01b0319166001600160a01b03861690811790915590518392907fddf252ad1be2c89b69c2b068fc378daa952ba7f163c4a11628f55a4df523b3ef908290a45050565b828054611dbd906123d6565b90600052602060002090601f016020900481019282611ddf5760008555611e25565b82601f10611df857805160ff1916838001178555611e25565b82800160010185558215611e25579182015b82811115611e25578251825591602001919060010190611e0a565b50611e31929150611e35565b5090565b5b80821115611e315760008155600101611e36565b600067ffffffffffffffff80841115611e6557611e6561246c565b604051601f8501601f19908116603f01168101908282118183101715611e8d57611e8d61246c565b81604052809350858152868686011115611ea657600080fd5b858560208301376000602087830101525050509392505050565b80356001600160a01b0381168114611ed757600080fd5b919050565b80358015158114611ed757600080fd5b600060208284031215611efd578081fd5b6111d582611ec0565b60008060408385031215611f18578081fd5b611f2183611ec0565b9150611f2f60208401611ec0565b90509250929050565b600080600060608486031215611f4c578081fd5b611f5584611ec0565b9250611f6360208501611ec0565b9150604084013590509250925092565b60008060008060808587031215611f88578081fd5b611f9185611ec0565b9350611f9f60208601611ec0565b925060408501359150606085013567ffffffffffffffff811115611fc1578182fd5b8501601f81018713611fd1578182fd5b611fe087823560208401611e4a565b91505092959194509250565b60008060408385031215611ffe578182fd5b61200783611ec0565b9150611f2f60208401611edc565b60008060408385031215612027578182fd5b61203083611ec0565b946020939093013593505050565b60006020828403121561204f578081fd5b6111d582611edc565b600060208284031215612069578081fd5b81356111d581612482565b600060208284031215612085578081fd5b81516111d581612482565b6000602082840312156120a1578081fd5b813567ffffffffffffffff8111156120b7578182fd5b8201601f810184136120c7578182fd5b61146784823560208401611e4a565b6000602082840312156120e7578081fd5b5035919050565b600081518084526121068160208601602086016123aa565b601f01601f19169290920160200192915050565b60008451602061212d8285838a016123aa565b8551918401916121408184848a016123aa565b85549201918390600181811c908083168061215c57607f831692505b85831081141561217a57634e487b7160e01b88526022600452602488fd5b80801561218e576001811461219f576121cb565b60ff198516885283880195506121cb565b60008b815260209020895b858110156121c35781548a8201529084019088016121aa565b505083880195505b50939b9a5050505050505050505050565b6001600160a01b038581168252841660208201526040810183905260806060820181905260009061220f908301846120ee565b9695505050505050565b6020808252825182820181905260009190848201906040850190845b8181101561225157835183529284019291840191600101612235565b50909695505050505050565b6020815260006111d560208301846120ee565b60208082526032908201527f4552433732313a207472616e7366657220746f206e6f6e20455243373231526560408201527131b2b4bb32b91034b6b83632b6b2b73a32b960711b606082015260800190565b6020808252818101527f4f776e61626c653a2063616c6c6572206973206e6f7420746865206f776e6572604082015260600190565b60208082526031908201527f4552433732313a207472616e736665722063616c6c6572206973206e6f74206f6040820152701ddb995c881b9bdc88185c1c1c9bdd9959607a1b606082015260800190565b6000821982111561235b5761235b612440565b500190565b60008261236f5761236f612456565b500490565b600081600019048311821515161561238e5761238e612440565b500290565b6000828210156123a5576123a5612440565b500390565b60005b838110156123c55781810151838201526020016123ad565b83811115610c785750506000910152565b600181811c908216806123ea57607f821691505b6020821081141561240b57634e487b7160e01b600052602260045260246000fd5b50919050565b600060001982141561242557612425612440565b5060010190565b60008261243b5761243b612456565b500690565b634e487b7160e01b600052601160045260246000fd5b634e487b7160e01b600052601260045260246000fd5b634e487b7160e01b600052604160045260246000fd5b6001600160e01b0319811681146112b157600080fdfea264697066735822122045978c0cecad0886bed36b2f5f09e0663974e88e9d0a92d97904200968f2230864736f6c634300080400334552433732313a207472616e7366657220746f206e6f6e204552433732315265",
  "immutableReferences": {},
  "source": "// SPDX-License-Identifier: GPL-3.0\n\n//        _..._                                                                    _..._                                                     \n//     .-'_..._''.                      _______                                 .-'_..._''.                                                  \n//   .' .'      '.\\             _..._   \\  ___ `'.                            .' .'      '.\\              .           __.....__              \n//  / .'                      .'     '.  ' |--.\\  \\.-.          .-           / .'                       .'|       .-''         '.            \n// . '                       .   .-.   . | |    \\  '\\ \\        / /          . '                       .'  |      /     .-''\"'-.  `.          \n// | |                 __    |  '   '  | | |     |  '\\ \\      / /           | |                 __   <    |     /     /________\\   \\         \n// | |              .:--.'.  |  |   |  | | |     |  | \\ \\    / /            | |              .:--.'.  |   | ____|                  |    _    \n// . '             / |   \\ | |  |   |  | | |     ' .'  \\ \\  / /             . '             / |   \\ | |   | \\ .'\\    .-------------'  .' |   \n//  \\ '.          .`\" __ | | |  |   |  | | |___.' /'    \\ `  /               \\ '.          .`\" __ | | |   |/  .  \\    '-.____...---. .   | / \n//   '. `._____.-'/ .'.''| | |  |   |  |/_______.'/      \\  /                 '. `._____.-'/ .'.''| | |    /\\  \\  `.             .'.'.'| |// \n//     `-.______ / / /   | |_|  |   |  |\\_______|/       / /                    `-.______ / / /   | |_|   |  \\  \\   `''-...... -'.'.'.-'  /  \n//              `  \\ \\._,\\ '/|  |   |  |             |`-' /                              `  \\ \\._,\\ '/'    \\  \\  \\               .'   \\_.'   \n//                  `--'  `\" '--'   '--'              '..'                                   `--'  `\"'------'  '---'                       \n\npragma solidity ^0.8.0;\n\nimport \"@openzeppelin/contracts/token/ERC721/extensions/ERC721Enumerable.sol\";\nimport \"@openzeppelin/contracts/access/Ownable.sol\";\n\ncontract SmartContract is ERC721Enumerable, Ownable {\n  using Strings for uint256;\n  string public baseURI;\n  string public baseExtension = \".json\";\n  uint256 public cost = 0.003 ether; // 1 ,2 ,3\n  uint256 public maxSupply = 2222;\n  uint256 public maxMintAmount = 157; // one user can mint only 5 nfts \n  bool public paused = false;\n  mapping(address => bool) public whitelisted;\n\n  constructor(\n    string memory _name,\n    string memory _symbol,\n    string memory _initBaseURI\n  ) ERC721(_name, _symbol) {\n    setBaseURI(_initBaseURI);\n    mint(msg.sender, 50); // msg.sender means you (the deployer )\n  }\n\n  // internal\n  function _baseURI() internal view virtual override returns (string memory) {\n    return baseURI;\n  }\n  // public\n  function mint(address _to, uint256 _mintAmount) public payable {\n    uint256 supply = totalSupply();\n    require(!paused,\"gasscase1\");\n    require(_mintAmount > 0,\"gasscase2\");\n    require(_mintAmount <= maxMintAmount,\"gasscase3\");\n    require(supply + _mintAmount <= maxSupply,\"gasscase4\");\n\n    if (msg.sender != owner()) {\n        if(whitelisted[msg.sender] != true) {\n          require(msg.value >= cost * _mintAmount,\"gasscase5\");\n        }\n    }\n\n    for (uint256 i = 1; i <= _mintAmount; i++) {\n      _safeMint(_to, supply + i);\n    }\n  }\n\n  function walletOfOwner(address _owner)\n    public\n    view\n    returns (uint256[] memory)\n  {\n    uint256 ownerTokenCount = balanceOf(_owner);\n    uint256[] memory tokenIds = new uint256[](ownerTokenCount);\n    for (uint256 i; i < ownerTokenCount; i++) {\n      tokenIds[i] = tokenOfOwnerByIndex(_owner, i);\n    }\n    return tokenIds;\n  }\n\n  function tokenURI(uint256 tokenId)\n    public\n    view\n    virtual\n    override\n    returns (string memory)\n  {\n    require(\n      _exists(tokenId),\n      \"ERC721Metadata: URI query for nonexistent token\"\n    );\n\n    string memory currentBaseURI = _baseURI();\n    return bytes(currentBaseURI).length > 0\n        ? string(abi.encodePacked(currentBaseURI, tokenId.toString(), baseExtension))\n        : \"\";\n  }\n\n  //only owner\n  function setCost(uint256 _newCost) public onlyOwner {\n    cost = _newCost;\n  }\n\n  function setmaxMintAmount(uint256 _newmaxMintAmount) public onlyOwner {\n    maxMintAmount = _newmaxMintAmount;\n  }\n\n  function setBaseURI(string memory _newBaseURI) public onlyOwner {\n    baseURI = _newBaseURI;\n  }\n\n  function setBaseExtension(string memory _newBaseExtension) public onlyOwner {\n    baseExtension = _newBaseExtension;\n  }\n\n  function pause(bool _state) public onlyOwner {\n    paused = _state;\n  }\n \n function whitelistUser(address _user) public onlyOwner {\n    whitelisted[_user] = true;\n  }\n \n  function removeWhitelistUser(address _user) public onlyOwner {\n    whitelisted[_user] = false;\n  }\n\n  function withdraw() public payable onlyOwner {\n  require(payable(msg.sender).send(address(this).balance),'');\n  }// the all money send to deployer account anyway\n  //  you can get all money on contracts in mainnet, when we deploy our \n  //  contract to mainnet you will able to see the contract on opensea \n}\n",
  "sourcePath": "D:\\fiverr\\dino-society-final\\contracts\\SmartContract.sol",
  "compiler": {
    "name": "solc",
    "version": "0.8.4+commit.c7e474f2.Emscripten.clang"
  },
  "schemaVersion": "3.4.3",
  "updatedAt": "2021-12-31T11:15:02.712Z",
  "devdoc": {
    "kind": "dev",
    "methods": {
      "approve(address,uint256)": {
        "details": "See {IERC721-approve}."
      },
      "balanceOf(address)": {
        "details": "See {IERC721-balanceOf}."
      },
      "getApproved(uint256)": {
        "details": "See {IERC721-getApproved}."
      },
      "isApprovedForAll(address,address)": {
        "details": "See {IERC721-isApprovedForAll}."
      },
      "name()": {
        "details": "See {IERC721Metadata-name}."
      },
      "owner()": {
        "details": "Returns the address of the current owner."
      },
      "ownerOf(uint256)": {
        "details": "See {IERC721-ownerOf}."
      },
      "renounceOwnership()": {
        "details": "Leaves the contract without owner. It will not be possible to call `onlyOwner` functions anymore. Can only be called by the current owner. NOTE: Renouncing ownership will leave the contract without an owner, thereby removing any functionality that is only available to the owner."
      },
      "safeTransferFrom(address,address,uint256)": {
        "details": "See {IERC721-safeTransferFrom}."
      },
      "safeTransferFrom(address,address,uint256,bytes)": {
        "details": "See {IERC721-safeTransferFrom}."
      },
      "setApprovalForAll(address,bool)": {
        "details": "See {IERC721-setApprovalForAll}."
      },
      "supportsInterface(bytes4)": {
        "details": "See {IERC165-supportsInterface}."
      },
      "symbol()": {
        "details": "See {IERC721Metadata-symbol}."
      },
      "tokenByIndex(uint256)": {
        "details": "See {IERC721Enumerable-tokenByIndex}."
      },
      "tokenOfOwnerByIndex(address,uint256)": {
        "details": "See {IERC721Enumerable-tokenOfOwnerByIndex}."
      },
      "tokenURI(uint256)": {
        "details": "See {IERC721Metadata-tokenURI}."
      },
      "totalSupply()": {
        "details": "See {IERC721Enumerable-totalSupply}."
      },
      "transferFrom(address,address,uint256)": {
        "details": "See {IERC721-transferFrom}."
      },
      "transferOwnership(address)": {
        "details": "Transfers ownership of the contract to a new account (`newOwner`). Can only be called by the current owner."
      }
    },
    "version": 1
  },
  "userdoc": {
    "kind": "user",
    "methods": {},
    "version": 1
  }
}